:100000000C9434000C9451000C9451000C94510049
:100010000C9451000C9451000C9451000C9451001C
:100020000C9451000C9451000C9451000C948303D7
:100030000C9451000C9451000C9451000C945100FC
:100040000C9451000C9451000C9451000C945100EC
:100050000C9451000C9451000C9451000C945100DC
:100060000C9451000C94510011241FBECFEFD8E026
:10007000DEBFCDBF11E0A0E0B1E0EEE1FEE002C0E6
:1000800005900D92A438B107D9F721E0A4E8B1E0BA
:1000900001C01D92A839B207E1F70E94A6020C9494
:1000A0000D070C9400008BB92998299A2998089576
:1000B000CF93C82F2898807F0E9453008C2F829561
:1000C000807F0E9453008DEE92E00197F1F700C00F
:1000D0000000CF9108958AB1806F8AB984B183609E
:1000E00084B985EA9EE00197F1F700C0000083E043
:1000F0000E94580081EE94E00197F1F700C00000E3
:1001000083E00E94580098E29A95F1F783E00E94FC
:10011000580082E00E94580083EF91E00197F1F7C8
:1001200000C0000088E20E94580083EF91E0019730
:10013000F1F700C000008FE00E94580089E698E1C6
:100140000197F1F700C0000081E00E94580089E6A5
:1001500098E10197F1F700C000000895CF93C82FF0
:10016000289A807F0E9453008C2F8295807F0E9466
:1001700053008DEE92E00197F1F700C00000CF919F
:100180000895CF93DF93EC0189910E94AE0088819E
:100190008111FACFDF91CF910895339B67C02FE192
:1001A00081EA97E0215080409040E1F700C00000D4
:1001B0002B9A80919201909193018A309105F4F4E9
:1001C0000196909393018093920187ED96ED0197AC
:1001D000F1F700C0000080919201909193010A977D
:1001E00069F4109293011092920180919401909180
:1001F00095010196909395018093940180919401CB
:1002000090919501069791F51092950110929401A5
:100210008091960190919701019690939701809318
:1002200096018A30910589F480910401909105012D
:1002300082309105D8F410929701109296010196A0
:100240009093050180930401089520910401309159
:1002500005012230310551F4049741F41092050153
:100260001092040110929701109296010895349B08
:1002700012C02FE181EA97E0215080409040E1F7E1
:1002800000C00000809188019091890101969093AF
:100290008901809388018091880190918901079755
:1002A00021F41092890110928801089580918801AB
:1002B00090918901892B39F480EC0E94580086E0E6
:1002C00091E00E94C100809188019091890101977D
:1002D00039F480EC0E94580082E191E00E94C10054
:1002E0008091880190918901029739F480EC0E94F5
:1002F00058008EE191E00E94C100809188019091A8
:100300008901039739F480EC0E9458008AE291E059
:100310000E94C1008091880190918901049739F46D
:1003200080EC0E94580086E391E00E94C100809119
:10033000880190918901059739F480EC0E9458005A
:1003400082E491E00E94C10080918801909189012E
:10035000069739F480EC0E9458008EE491E00E94E8
:10036000C100089586EC0E945800329B67C02FE1BF
:1003700081EA97E0215080409040E1F700C0000002
:100380002B9A80918C0190918D018A309105F4F423
:10039000019690938D0180938C0187ED96ED0197E6
:1003A000F1F700C0000080918C0190918D010A97B7
:1003B00069F410928D0110928C018091020190914C
:1003C0000301019690930301809302018091020141
:1003D00090910301069791F510920301109202018A
:1003E00080918A0190918B01019690938B0180936B
:1003F0008A018A30910589F4809100019091010170
:1004000082309105D8F410928B0110928A010196E6
:100410009093010180930001089520910001309193
:1004200001012230310551F4049741F41092010189
:100430001092000110928B0110928A010895209170
:100440009401309195018091020190910301281748
:10045000390751F5209192013091930180918C01DF
:1004600090918D0128173907F9F4209104013091FA
:100470000501809100019091010128173907A1F42D
:10048000209196013091970180918A0190918B0182
:100490002817390749F481E090E090938501809313
:1004A00084012C9A2B9A08952C980895319B1CC096
:1004B0002FE78AE196E0215080409040E1F700C0AC
:1004C00000002B9A8091860190918701019690936C
:1004D0008701809386012FEF80E792E021508040D2
:1004E0009040E1F700C00000809186019091870163
:1004F000019791F40E94B20186E80E9458008AE5B3
:1005000091E00E94C1000E941F028091860190919B
:100510008701892B69F404C010928701109286012B
:100520002C9886E80E9458008EE591E00E94C10058
:100530000895359B0AC02FE181EA97E02150804061
:100540009040E1F700C000002B980895CF93DF930F
:10055000CDB7DEB7C85CD1090FB6F894DEBF0FBEC9
:10056000CDBF0E946B0087B1807E87B984B188615E
:1005700084B9E1E8F0E088E0808388E09DE390932F
:1005800089008093880082E080936F007894808156
:10059000856080830F2EF3E7EF2EF1E0FF2EF02D24
:1005A0008E010B591F4F0F2EF9E6AF2EF1E0BF2E33
:1005B000F02DCE0101966C01309B13C02B9A8091D7
:1005C0008401909185010196909385018093840127
:1005D0009FEF20E782E0915020408040E1F700C08B
:1005E00000008091840190918501019709F041C03C
:1005F00080E80E94580082E691E00E94C10080ECF1
:100600000E94580082E691E00E94C10086EC0E94A0
:10061000580080918D018F9380918C018F938091F0
:1006200003018F93809102018F9380918B018F93AF
:1006300080918A018F93809101018F9380910001B5
:100640008F93BF92AF92DF92CF920E942304C60194
:100650000E94C1000E9456020FB6F894DEBF0FBE82
:10066000CDBF8091840190918501892B09F048C00C
:1006700004C01092850110928401809186019091AE
:100680008701019711F40E941F0280E80E94580020
:1006900080918F018F9380918E018F938091910132
:1006A0008F93809190018F93809193018F9380918C
:1006B00092018F93809195018F93809194018F93F4
:1006C000809197018F93809196018F93809105017E
:1006D0008F93809104018F93FF92EF921F930F935A
:1006E0000E942304C8010E94C1000E9456010E947A
:1006F000CD000E9437010FB6F894DEBF0FBECDBF0C
:100700000E94990259CF1F920F920FB60F92112497
:100710002F933F938F939F9380918E0190918F01A0
:100720008A3091050CF086C001968A30910529F037
:1007300090938F0180938E010DC010928F011092C3
:100740008E01809190019091910101969093910179
:100750008093900180919001909191010697F1F41E
:1007600010929101109290018091920190919301C9
:1007700001968A30910529F090939301809392011C
:100780000DC010929301109292018091940190916A
:100790009501019690939501809394018091940125
:1007A00090919501069709F045C01092950110921D
:1007B00094018091960190919701019690939701F1
:1007C000809396018A30910589F48091040190917B
:1007D00005018230910520F5109297011092960143
:1007E000019690930501809304011AC020910401A1
:1007F000309105012230310599F4049789F4109263
:1008000005011092040110929701109296018091B7
:1008100088019091890101969093890180938801C4
:100820008091880190918901079721F410928901A4
:10083000109288019F918F913F912F910F900FBE41
:100840000F901F901895AEE0B0E0E9E2F4E00C9450
:10085000E4060D891E8986E08C831A8309838FEF55
:100860009FE79E838D83AE01475E5F4F6F89788DD2
:10087000CE0101960E944504EF81F885E00FF11F3B
:1008800010822E96E4E00C940007ABE0B0E0EBE4BD
:10089000F4E00C94D6066C017B018A01FC011782FE
:1008A0001682838181FFCCC1CE0101963C01F60105
:1008B0009381F70193FD859193FF81917F018823B7
:1008C00009F4BAC1853239F493FD859193FF819182
:1008D0007F01853229F4B60190E00E943C06E7CF03
:1008E000912C212C312CFFE1F315D8F08B3279F0CB
:1008F00038F4803279F08332A1F4232D20611DC0B9
:100900008D3261F0803369F4232D216016C0832D70
:100910008260382EE32DE4603E2E2AC0F32DF8606D
:100920001DC037FC2DC020ED280F2A3040F08E323C
:10093000B9F436FC81C1232D2064322E19C036FE55
:1009400006C08AE0989E200D1124922E11C0EAE084
:100950002E9E200D1124222EF32DF0623F2E08C072
:100960008C3621F4832D8068382E02C0883641F4FD
:10097000F70193FD859193FF81917F018111B3CFA1
:10098000982F9F7D9554933028F40C5F1F4F9FE361
:1009900099830DC0833631F0833771F0833509F0C8
:1009A00059C021C0F801808189830E5F1F4F8824C0
:1009B0008394912C530113C02801F2E04F0E511C77
:1009C000F801A080B18036FE03C0692D70E002C03E
:1009D0006FEF7FEFC5010E9431064C018201F32DBC
:1009E000FF773F2E16C0280122E0420E511CF8016D
:1009F000A080B18036FE03C0692D70E002C06FEFA9
:100A00007FEFC5010E9426064C01F32DF0683F2EB2
:100A1000820133FC1BC0822D90E088169906B0F449
:100A2000B60180E290E00E943C062A94F4CFF501E2
:100A300037FC859137FE81915F01B60190E00E94FD
:100A40003C0621102A9421E0821A91088114910415
:100A500071F7E8C0843611F0893641F5F80137FEA8
:100A600007C060817181828193810C5F1F4F08C034
:100A700060817181072E000C880B990B0E5F1F4F50
:100A8000F32DFF763F2E97FF09C0909580957095C6
:100A900061957F4F8F4F9F4FF0683F2E2AE030E0E7
:100AA000A3010E947806882E861845C0853731F448
:100AB000232D2F7EB22E2AE030E025C0932D997F82
:100AC000B92E8F36C1F018F4883579F0B5C080376B
:100AD00019F0883721F0B0C0E92FE061BE2EB4FED6
:100AE0000DC0FB2DF460BF2E09C034FE0AC0292FB3
:100AF0002660B22E06C028E030E005C020E130E0DC
:100B000002C020E132E0F801B7FE07C060817181C8
:100B1000828193810C5F1F4F06C06081718180E0EC
:100B200090E00E5F1F4FA3010E947806882E861862
:100B3000FB2DFF773F2E36FE0DC0232D2E7FA22EDC
:100B4000891458F434FE0BC032FC09C0832D8E7E0C
:100B5000A82E05C0B82CA32C03C0B82C01C0B92CFA
:100B6000A4FE0FC0FE01E80DF11D8081803321F449
:100B70009A2D997EA92E09C0A2FE06C0B394B39403
:100B800004C08A2D867809F0B394A3FC11C0A0FE9E
:100B900006C0B21488F4280C922C9B180EC0B21414
:100BA00060F4B60180E290E00E943C06B394F7CF77
:100BB000B21418F42B1802C0982C212CA4FE10C0DB
:100BC000B60180E390E00E943C06A2FE17C0A1FCA3
:100BD00003C088E790E002C088E590E0B6010CC051
:100BE0008A2D867859F0A1FE02C08BE201C080E216
:100BF000A7FC8DE2B60190E00E943C06891438F40F
:100C0000B60180E390E00E943C069A94F7CF8A9464
:100C1000F301E80DF11D8081B60190E00E943C06D1
:100C20008110F5CF222009F442CEB60180E290E097
:100C30000E943C062A94F6CFF6018681978102C075
:100C40008FEF9FEF2B96E2E10C94F206FC010590EA
:100C5000615070400110D8F7809590958E0F9F1FBE
:100C60000895FC016150704001900110D8F7809503
:100C700090958E0F9F1F08950F931F93CF93DF932F
:100C8000FB01238121FD03C08FEF9FEF2CC022FFCA
:100C900016C046815781248135814217530744F499
:100CA000A081B1819D012F5F3F4F318320838C93C1
:100CB000268137812F5F3F4F3783268314C08B01F6
:100CC000EC01FB010084F185E02D0995892BE1F60B
:100CD000D80116968D919C911797019617969C9323
:100CE0008E931697CE01DF91CF911F910F910895AA
:100CF000FA01AA27283051F1203181F1E8946F934D
:100D00006E7F6E5F7F4F8F4F9F4FAF4FB1E03ED0F2
:100D1000B4E03CD0670F781F891F9A1FA11D680F90
:100D2000791F8A1F911DA11D6A0F711D811D911DC3
:100D3000A11D20D009F468943F912AE0269F112438
:100D40003019305D3193DEF6CF010895462F47709C
:100D5000405D4193B3E00FD0C9F7F6CF462F4F70F7
:100D6000405D4A3318F0495D31FD4052419302D055
:100D7000A9F7EACFB4E0A6959795879577956795FB
:100D8000BA95C9F700976105710508959B01AC01FB
:100D90000A2E06945795479537952795BA95C9F722
:100DA000620F731F841F951FA01D08952F923F92FD
:100DB0004F925F926F927F928F929F92AF92BF926B
:100DC000CF92DF92EF92FF920F931F93CF93DF9317
:100DD000CDB7DEB7CA1BDB0B0FB6F894DEBF0FBE74
:100DE000CDBF09942A88398848885F846E847D84C1
:100DF0008C849B84AA84B984C884DF80EE80FD80C3
:100E00000C811B81AA81B981CE0FD11D0FB6F89438
:0E0E1000DEBF0FBECDBFED010895F894FFCFF9
:100E1E000100010001004D6F6E64617920202020D9
:100E2E002000547565736461792020202000576579
:100E3E00646E657364617920200054687572736402
:100E4E00617920202000467269646179202020207B
:100E5E0020005361747572646179202020005375EF
:100E6E006E6461792020202020004F4E20004F66B6
:100E7E006600416C61726D3A00256425643A256402
:100E8E00256400256425643A256425643A25642585
:040E9E0064200000CC
:00000001FF
